:020000041001E9
:100000000082003025080110E507011009080110E1
:10001000E5070110E5070110E5070110E5070110EC
:10002000000000000000000000000000E5070110D3
:10003000E507011000000000E5070110E5070110C9
:10004000E5070110E5070110E5070110E5070110BC
:10005000E5070110E5070110E5070110E5070110AC
:10006000E5070110E5070110E5070110E50701109C
:10007000E5070110E5070110E5070110E50701108C
:10008000E5070110E5070110E5070110E50701107C
:10009000E5070110E5070110E5070110E50701106C
:1000A000E5070110E5070110E5070110E50701105C
:1000B000E5070110E5070110E5070110E50701104C
:1000C000E5070110E5070110E5070110E50701103C
:1000D000E5070110E5070110E5070110E50701102C
:1000E000E5070110E5070110E5070110E50701101C
:1000F000E5070110E5070110E5070110E50701100C
:10010000E5070110E5070110E5070110E5070110FB
:10011000E5070110E5070110E5070110E5070110EB
:10012000E5070110E5070110E5070110E5070110DB
:1001300059080110E5070110E5070110E507011056
:10014000E5070110E5070110E5070110E5070110BB
:10015000E5070110E5070110E5070110E5070110AB
:10016000E5070110E5070110E5070110E50701109B
:10017000E5070110E5070110E5070110E50701108B
:10018000E5070110E5070110E5070110E50701107B
:10019000E5070110E5070110E5070110E50701106B
:1001A000E5070110E5070110E5070110E50701105B
:1001B000E5070110E5070110E5070110E50701104B
:1001C000E5070110E5070110E5070110E50701103B
:1001D000E5070110E5070110E5070110E50701102B
:1001E000E5070110E5070110E5070110E50701101B
:1001F000E5070110E5070110E5070110E50701100B
:10020000E5070110E5070110E5070110E5070110FA
:10021000E5070110E5070110E5070110E5070110EA
:10022000E5070110E5070110E5070110E5070110DA
:10023000E5070110E5070110E5070110E5070110CA
:10024000E5070110E5070110E5070110E5070110BA
:10025000E5070110E5070110E5070110E5070110AA
:10026000E5070110E5070110E5070110E50701109A
:10027000E5070110E5070110E50701100000000087
:1002800000000000DFF80CD000F006FA004800473C
:10029000410901100082003030B50B4601460020B4
:1002A0002022012409E021FA02F59D4205D303FA38
:1002B00002F5491B04FA02F52844151EA2F10102B9
:1002C000F1DC30BD2DE9F05F0546002092469B46EB
:1002D00088460646814640241BE02846414647465C
:1002E000224600F000FA53465A46C01A914110D3F4
:1002F00011461846224600F0E7F92D1A67EB01086F
:100300004F4622460120002100F0DEF917EB0009DC
:100310004E41201EA4F10104DFDC484631462A4646
:100320004346BDE8F09F2DE9FE4F804681EA030079
:10033000C00F0C46009021F0004123F00045B8EBBF
:100340000200A94105D24046214690461C460B4674
:10035000024623F00040104347D0270DC7F30A00A0
:10036000C3F30A510290401A019040286BDAC3F39C
:10037000130040F4801B0098924620B10023D2EB7A
:10038000030A63EB0B0B01985946C0F1400250463B
:1003900000F09AF906460D4650465946019A00F07B
:1003A000B2F910EB08006141002487EA115284EA97
:1003B000E7731A4340D0009A62B3019A012A4FEAC8
:1003C000075215DC001B61EB02014FF0004202EA0C
:1003D0000752CDE90042001C41F5801132462B4600
:1003E00000F0B2F903B0BDE8F08F40462146F9E7CE
:1003F000001B61EB0201001C41F5801300185B41FA
:100400002018A2F5001747EB030140EAD570B61992
:100410006D4111E06D084FEA360645EAC0754FEAB6
:100420000752001B61EB0201001C41F580114908D5
:100430004FEA30000019514132462B4603B0BDE867
:10044000F04F00F072B90098012240000023D0EB79
:10045000020263EBE073009821464FEAE074B8EBC8
:10046000000061EB0401E9E783F000435BE781F002
:10047000004158E72DE9FE4F81EA030404F00044EF
:1004800021F0004100944FF0000B23F0004350EAAC
:1004900001045ED052EA03045BD0C3F30A54C1F3F3
:1004A0000A552C44A4F2F3340194A0FB0254C1F386
:1004B000130141F48011C3F3130343F4801301FBD0
:1004C000024400FB034E840A970A44EA815447EA37
:1004D0008357A4FB076802958D0A05FB07854FEA41
:1004E000932C04FB0C542705029D4FEA065847EA5B
:1004F0001637B5EB08056EEB070C870E920E47EA30
:10050000811742EA8312A7FB0201B6EB0B0164EBF1
:1005100000042B0D43EA0C335E1844EB1C50DA4602
:100520005146E7FB0201C5F313044FEA0B3343EADC
:1005300014534FEA0432019C43EA0603A4F10C046D
:100540000294009CCDE900B400F0FEF803B0BDE8D1
:10055000F08F00200146F9E72DE9F04D81EA030410
:1005600004F0004B21F0004514464FF0000A23F040
:10057000004150EA050220D054EA01021DD0C5F323
:100580000A570246C5F31303C1F31300C1F30A5619
:1005900040F4801543F48013A7EB0608101BD646E1
:1005A00008F2FD3873EB050002D308F1010801E001
:1005B00092185B41B8F1000F03DA00200146BDE854
:1005C000F08D00204FF48011064684460EE0171B84
:1005D00073EB050705D3121B63EB050306434CEAD7
:1005E000010C49084FEA300092185B4150EA0107BC
:1005F000EDD152EA030012D082EA040083EA050139
:10060000084305D0101BAB4106D20122002306E0AF
:1006100000224FF0004302E06FF0010253101AEB8A
:1006200006004CEB085110EB0A0041EB0B01BDE852
:10063000F04D00F07AB8C1F30A52C1F3130140F251
:10064000FF3341F480119A4202DA002001467047DC
:1006500040F233439A42A2F2334202DC524200F0AB
:1006600042B800F031B8000030B5041E71F100044A
:1006700004DB4FF00044404264EB0101141E73F1AF
:10068000000405DB1C464FF00043524263EB0403B9
:10069000994208BF904230BD1CB5094800900948F6
:1006A00001900546009C06E0E06840F0010394E8F4
:1006B000070098471034AC42F6D3FFF7E7FD00007F
:1006C0008C150110AC150110202A04DB203A00FA29
:1006D00002F1002070479140C2F1200320FA03F399
:1006E000194390407047202A04DB203A21FA02F097
:1006F0000021704721FA02F3D040C2F1200291405C
:10070000084319467047202A06DBCB17203A41FAE6
:1007100002F043EAE07306E041FA02F3D040C2F18E
:100720002002914008431946704710B5141E73F11A
:10073000000408DA401C41F1000192185B411A43A1
:1007400001D120F0010010BD2DE9F04D92469B46ED
:1007500011B1B1FA81F202E0B0FA80F22032904693
:10076000FFF7B2FF04460F4640EA0A0041EA0B01D8
:1007700053465A46084313D0114653EA010019D094
:10078000C8F140025046FFF7AEFF05460E46504600
:1007900059464246FFF798FF084305D0012004E080
:1007A00020463946BDE8F08D0020054346EAE07654
:1007B0002C4337430A986305E40AA0EB08000022A3
:1007C000FD0A44EA47540A3002D500200146E9E711
:1007D000010510196941DDE9084500196941BDE8C5
:1007E000F04DA2E7FFE7FEE7FFE71820C5F207009C
:1007F00000684004002806D4FFE70020C5F2070087
:100800000068C0B27047F0E744F6C801C5F20001C5
:100810000020086041F24F40C1F2010000F052F99F
:10082000FFE7FEE784B048F20020C3F20000019029
:10083000019880F3098848F20000C3F2000002909A
:10084000029981F30A880390039880F30B8800F0E3
:1008500035F8FFF717FD0000FFE7FEE780B582B02F
:100860000190019800F002F802B080BD81B00090C4
:100870009DF800000A2810D1FFE7FFE71820C5F215
:10088000070000680002002801D5FFE7F6E7002115
:10089000C5F207010D200860FFE7FFE71820C5F249
:1008A000070000680002002801D5FFE7F6E700987E
:1008B0000021C5F20701086001B0704780B500F063
:1008C00027F8C000002815D4FFE7FFE740F2001129
:1008D000C5F20001592008601620086088200860D1
:1008E000FFE740F20010C5F2000000680028EDD0DC
:1008F000FFE7FFE74EF68851CEF20001086840F4AA
:1009000070000860086840F47000086080BD000056
:1009100081B078460090009801B0704780B582B0F1
:100920000190FFF761FF02B080BD000080B582B08A
:10093000019000910198FFF791FF019802B080BDEE
:1009400080B586B00020059041F28950C1F20100C7
:1009500000F0B8F841F2BA30C1F20100029000F0A4
:10096000B1F841F2A940C1F2010000F0ABF80298E1
:1009700000F0A8F800F0A0F8014648F20020C3F209
:1009800000000160016841F23740C1F2010000F04F
:1009900099F8FFE741F2EB30C1F20100009000F05E
:1009A00091F841F25050C1F2010000F08BF841F291
:1009B0001550C1F2010000F085F841F2DA40C1F2B1
:1009C000010000F07FF841F26E40C1F2010000F03A
:1009D00079F8009800F076F848F20420C3F200009D
:1009E00000F0E9FC8DF80F009DF80F00303801464B
:1009F0000191032856D80199DFE801F00208141884
:100A00000021C1F20401002008604CE044F64001DE
:100A1000C4F200010020086044F64401C4F2000161
:100A2000086040E04FF0005000683CE041F2264092
:100A3000C1F2010000F046F844F6D011C5F2000101
:100A40000020086044F6D411C5F2000101200860BE
:100A500044F6D811C5F200010860FFE744F6D01152
:100A6000C5F20001086880F00100086044F6D41166
:100A7000C5F20001086880F00100086044F6D81152
:100A8000C5F20001086880F0010008604FF0807036
:100A90000490FFE70498411E049110B1FFE700BFE6
:100AA000F8E7DBE7FFE7FFE7012000287FF472AFFC
:100AB000FFE7059806B080BD43F2810CC0F2000C40
:100AC000604700000FB4054B10B503A9044A029813
:100AD00000F0DAF810BC5DF814FB00002D090110DD
:100AE0005882003002E008C8121F08C1002AFAD15B
:100AF00070477047002001E001C1121F002AFBD19E
:100B0000704700002DE9FF5F82B00021DDE904306D
:100B1000020DDDF840B0034318D044F61050A2F2A5
:100B2000FF3242431514119801281FD0A5EB0B008A
:100B3000401C5FEA000A4FF000064E4FDFF8389184
:100B4000B046504615D5CAF1000413E011980124AF
:100B50004AA3012801D16FEA0B010298119AC0E95A
:100B60000031C0E9024206B0BDE8F09FCBF10000C1
:100B7000DFE704460021404A491842EB0450CDE922
:100B8000001012E0E00707D032463B464046494697
:100B9000FFF770FC8046894632463B4610461946B0
:100BA000FFF768FC06460F466410002CEAD1DDE929
:100BB0000401DDE90023BAF1000F06DAFFF75AFC61
:100BC00042464B46FFF756FC05E0FFF7C5FC4246A0
:100BD0004B46FFF7C1FC04460E460022284BFFF7A8
:100BE00043FD03D84FF0FF30014607E00022254BBC
:100BF00020463146FFF797FBFFF71DFD102409E063
:100C0000002C0ADB0A220023FFF75CFB039B303237
:100C10001A55641E50EA0102F2D1641C039AC4F111
:100C200011031444119A012A03D0012208430DD163
:100C30000AE0084304D000204FF0110B119072E736
:100C4000A3EB0B056D1E0DE05B4504DD4FF00002CC
:100C500005F1010504E003DA4FF00002A5F10105FA
:100C6000002AECD002981199C0E90231C0E9004590
:100C700079E70000000014400000F03F3000000061
:100C80000000F0430000E03F2DE9FF4F95B09B4688
:100C90008946064600250FE2252877D100242746FD
:100CA000F84A0121059400E0044316F8013F203B77
:100CB00001FA03F01042F7D130782A2811D06FF0F2
:100CC0002F033078A0F13002092A16D8059A44F093
:100CD000020402EB820203EB42021044761C0590F0
:100CE000EFE759F8042B0592002A03DA504244F446
:100CF0000054059044F00204761C30782E2816D15A
:100D000016F8010F44F004042A280DD06FF02F02CA
:100D10003078A0F13003092B09D807EB870302EBE9
:100D20004303C718761CF3E759F8047B761C307828
:100D30006C280FD006DC4C2817D068280DD06A2804
:100D400014D104E0742810D07A280FD10DE044F4B7
:100D500000140AE044F4801401E044F44014727872
:100D6000824202D104F58014761C761C3078662805
:100D70000BD013DC582877D009DC002875D0452823
:100D8000F6D04628F4D047281AD19DE118E0632810
:100D900035D0642879D0652812D195E1702873D0B8
:100DA00008DC6728F1D069286FD06E280DD06F2835
:100DB00006D1B5E073282CD0752875D0782874D06A
:100DC0005A46179990476D1C75E1C4F302500228EA
:100DD00009D003280DD0D9F8001004280DD00D60DB
:100DE00009F1040967E1D9F80010EA17C1E90052D6
:100DF000F6E7D9F800100D80F2E70D70F0E719F86A
:100E0000041B8DF8001000208DF80100EA46012037
:100E100003E059F804AB4FF0FF3061074FF00001D9
:100E200002D40DE008F101018846B9420FDA80458D
:100E3000F8DB1AF808100029F4D108E008F10101E4
:100E400088468142FADB1AF808100029F6D1059885
:100E50005B46A0EB080721463846179A00F094FA43
:100E6000284400EB080507E04DE029E10DE01AF801
:100E7000010B5A4617999047B8F10108F7D25B4623
:100E800021463846179A13E142E00A220092C4F341
:100E900002524FF0000A022A08D059F804CB032A64
:100EA0004FEAEC710AD00DE029E02AE009F10701D0
:100EB00021F00702F2E802C1914609E00FFA8CFC2A
:100EC0004FEAEC71042A03D14FFA8CFC4FEAEC7123
:100ED000002907DA0A460021DCF1000C61EB02016F
:100EE0002D2202E0220504D52B228DF804200122B8
:100EF00003E0E20701D02022F7E7904659E00A21FB
:100F000002E010220DE010214FF0000A00910BE0EA
:100F100010224FF0000A44F004040827009203E076
:100F200008224FF0000A0092C4F30252022A05D0B0
:100F300059F804CB0021032A08D009E009F1070180
:100F400021F00702F2E802C1914605E01FFA8CFC8D
:100F5000042A01D10CF0FF0C4FF00008220728D51D
:100F6000702806D0009B83F0100353EA0A0305D0D3
:100F70000EE040228DF80420012208E05CEA010224
:100F800006D030228DF804208DF80500022290460C
:100F9000009B83F0080353EA0A030AD15CEA0102CA
:100FA00001D1620705D530228DF804204FF00108E9
:100FB0007F1E582804D034A003900EA802900DE0A4
:100FC00036A0F9E753466046009AFFF77BF984465E
:100FD0000398825C0298401E029002705CEA010055
:100FE000F0D1029806A9081A00F1200A600702D57C
:100FF00024F4803400E00127574502DDA7EB0A0006
:1010000000E0002000EB0A01009005984144401ADE
:101010000590E00306D45B462146179A059800F038
:10102000B3F90544002706E001A85A46C05D1799A8
:1010300090476D1C7F1C4745F6DBE0030CD55B46F3
:101040002146179A059800F09FF9054404E03020E6
:101050005A46179990476D1C0099481E0090002928
:10106000F5DC08E0029802995A460078491C029182
:10107000179990476D1CBAF10001AAF1010AF1DC41
:1010800065E100000928010030313233343536374C
:1010900038396162636465660000000030313233C4
:1010A0003435363738394142434445460000000064
:1010B00000F058F90544761C307800287FF4ECAD38
:1010C00019B02846BDE8F08F620700D4062709F161
:1010D000070222F0070CFCE80223E14603F0004877
:1010E0005FEA080C02D00FF2702C0DE05FEA045C9E
:1010F00002D50FF2682C07E05FEAC47C02D00FF241
:10110000602C01E0AFF2700C4FF0FF3823F0004389
:10111000CDF850C065280CD006DC452809D04628FB
:101120001DD047283DD13DE0662818D067287ED1E4
:1011300038E00021112F01DB112000E0781CCDE9FF
:10114000000106A90EA8FFF7DDFCDDE90F010E9AEC
:1011500003910021009207F1010A04914DE04FF044
:1011600000400097CDE9011006A90EA8FFF7CAFCC0
:10117000DDE90F0203920E9B11990022DDF80CA00D
:101180000093049211B9791C00EB010AB7EB0A0035
:1011900004D4C0F1FF3007F1010A0490AAEB070064
:1011A000019044E0012F00DA01270021112F01DD19
:1011B000112000E03846CDE9000106A90EA8FFF78E
:1011C000A1FCDDE90F010E9A039100210491009228
:1011D000BA4621070CD40399514500DA8A46BAF180
:1011E000010F05DD009AAAF10101515C302908D0F8
:1011F000B84202DA10F1040F06DA0121CDE901103C
:1012000015E0AAF10101E9E7002805DC0499014491
:101210000491AAEB000102E0411C514500DD8A4621
:101220000499401A401C01904FF0004002902007A2
:1012300004D40198504501DBCDF8048000208DF8DE
:101240004F0002980DF14F07B0F1004F25D02B2031
:101250000E9002984FF0020800280CDA40420290EB
:101260002D200E9007E00A210298FFF715F8303183
:10127000029007F8011DB8F10001A8F10108F2DCA5
:1012800002980028EFD1791E0E980870307800F08F
:10129000200040F0450007F8020D12A8C01B00F125
:1012A00007081498007800B1012000EB0A010198AA
:1012B00001EBE07105984144401A401E0590E0039F
:1012C00006D45B462146179A059800F05DF8054460
:1012D0001498007818B15A46179990476D1CE0038E
:1012E00024D55B462146179A059800F04DF8054431
:1012F0001CE00498002807DBDDE90301884203DDD8
:101300000098405C179901E0179930205A469047A1
:10131000049805F10105401C04900198401E0190BD
:1013200004D12E205A46179990476D1CBAF100013E
:10133000AAF1010ADDDC05E017F8010B5A461799FE
:1013400090476D1CB8F10001A8F10108F4DC5B4680
:101350002146179A0598ABE62D0000002B000000EF
:10136000200000002DE9F041044600251E461746E6
:10137000880404D405E039462020B0476D1C641E63
:10138000F9D52846BDE8F0812DE9F0410446002555
:101390001E469046C80301D5302700E02027880468
:1013A00004D505E041463846B0476D1C641EF9D5AA
:1013B0002846BDE8F081FFF7B1BA2B2D2D2D2D2D3C
:1013C0002D2D2D2D2D2D2D2D2D2D2D2D2D2D2D2D4D
:1013D0002D2D2D2D2D2D2D2D2D2D2D2D2D2D2D2D3D
:1013E0002D2D2D2D2D2D2D2D2B0A002B2D2D2D2D81
:1013F0002D2D2D2D2D2D2D2D2D2D2D2D2D2D2D2D1D
:101400002D2D2D2D2D2D2D2D2D2D2D2D2D2D2D2D0C
:101410002D2D2D2D2D2D2D2D2D2D2D2D2D2D2D2DFC
:101420002D2D2D2B0A004C454420626C696E6B6992
:101430006E672E2E2E0A0053797374656D20636FCC
:10144000726520636C6F636B203D2025640A004E3B
:101450006F6E2D7365637572652048616E642046FA
:1014600061756C742048616E646C65720A007C2042
:101470005B335D20546F67676C65206E6F6E2D73F4
:10148000656375726520492F4F2020202020202081
:10149000202020202020202020202020202020204C
:1014A0002020202020207C0A007C202020204E6F3D
:1014B0006E73656375726520636F64652069732060
:1014C00072756E6E696E67202E2E2E2020202020D1
:1014D000202020202020207C0A007C205B325D2000
:1014E0005265616420736563757265205352414D86
:1014F00020746F2067656E65726174652068617223
:1015000064206661756C742020202020202020201B
:1015100020207C0A007C205B315D20577269746555
:101520002073656375726520492F4F20706F727448
:1015300020746F2067656E657261746520686172E2
:1015400064206661756C742020202020207C0A00B5
:101550007C205B305D205772697465206164647221
:10156000657373203078313030343030303020744F
:101570006F2067656E6572617465206861726420B2
:101580006661756C742020207C0A0000AC15011087
:101590000082003004000000E40A0110B0150110C0
:1015A00004820030A8000000F40A011000688909D4
:04000005100102855F
:00000001FF
